{
  "contractName": "Borrow",
  "abi": [
    {
      "inputs": [],
      "payable": false,
      "stateMutability": "nonpayable",
      "type": "constructor"
    },
    {
      "anonymous": false,
      "inputs": [
        {
          "indexed": false,
          "internalType": "uint256",
          "name": "bookId",
          "type": "uint256"
        }
      ],
      "name": "LogBorrowed",
      "type": "event"
    },
    {
      "constant": true,
      "inputs": [],
      "name": "bookCount",
      "outputs": [
        {
          "internalType": "uint256",
          "name": "",
          "type": "uint256"
        }
      ],
      "payable": false,
      "stateMutability": "view",
      "type": "function"
    },
    {
      "constant": true,
      "inputs": [
        {
          "internalType": "uint256",
          "name": "",
          "type": "uint256"
        }
      ],
      "name": "borrowers",
      "outputs": [
        {
          "internalType": "address",
          "name": "",
          "type": "address"
        }
      ],
      "payable": false,
      "stateMutability": "view",
      "type": "function"
    },
    {
      "constant": false,
      "inputs": [],
      "name": "toggleEmergency",
      "outputs": [
        {
          "internalType": "bool",
          "name": "",
          "type": "bool"
        }
      ],
      "payable": false,
      "stateMutability": "nonpayable",
      "type": "function"
    },
    {
      "constant": false,
      "inputs": [
        {
          "internalType": "uint256",
          "name": "bookId",
          "type": "uint256"
        }
      ],
      "name": "borrowBook",
      "outputs": [
        {
          "internalType": "uint256",
          "name": "",
          "type": "uint256"
        }
      ],
      "payable": false,
      "stateMutability": "nonpayable",
      "type": "function"
    },
    {
      "constant": true,
      "inputs": [],
      "name": "getNumBooks",
      "outputs": [
        {
          "internalType": "uint256",
          "name": "",
          "type": "uint256"
        }
      ],
      "payable": false,
      "stateMutability": "view",
      "type": "function"
    },
    {
      "constant": true,
      "inputs": [],
      "name": "getBorrowers",
      "outputs": [
        {
          "internalType": "address[16]",
          "name": "",
          "type": "address[16]"
        }
      ],
      "payable": false,
      "stateMutability": "view",
      "type": "function"
    }
  ],
  "bytecode": "0x608060405260008060006101000a81548160ff02191690831515021790555034801561002a57600080fd5b5060106001819055506104a4806100426000396000f3fe608060405234801561001057600080fd5b50600436106100625760003560e01c80632d1d2744146100675780636854786a146100895780637924d93f146100cf5780637e490a9e1461013d578063b905ad781461017f578063e002ece41461019d575b600080fd5b61006f6101bb565b604051808215151515815260200191505060405180910390f35b610091610245565b6040518082601060200280838360005b838110156100bc5780820151818401526020810190506100a1565b5050505090500191505060405180910390f35b6100fb600480360360208110156100e557600080fd5b81019080803590602001909291905050506102df565b604051808273ffffffffffffffffffffffffffffffffffffffff1673ffffffffffffffffffffffffffffffffffffffff16815260200191505060405180910390f35b6101696004803603602081101561015357600080fd5b8101908080359060200190929190505050610312565b6040518082815260200191505060405180910390f35b61018761043c565b6040518082815260200191505060405180910390f35b6101a5610442565b6040518082815260200191505060405180910390f35b60008060019054906101000a900473ffffffffffffffffffffffffffffffffffffffff1673ffffffffffffffffffffffffffffffffffffffff163373ffffffffffffffffffffffffffffffffffffffff161461021657600080fd5b6000809054906101000a900460ff16156000806101000a81548160ff0219169083151502179055506001905090565b61024d61044c565b6000809054906101000a900460ff161561026657600080fd5b60026010806020026040519081016040528092919082601080156102d5576020028201915b8160009054906101000a900473ffffffffffffffffffffffffffffffffffffffff1673ffffffffffffffffffffffffffffffffffffffff168152602001906001019080831161028b575b5050505050905090565b600281601081106102ec57fe5b016000915054906101000a900473ffffffffffffffffffffffffffffffffffffffff1681565b60008060009054906101000a900460ff161561032d57600080fd5b6000821015801561034057506001548211155b61034957600080fd5b600073ffffffffffffffffffffffffffffffffffffffff166002836010811061036e57fe5b0160009054906101000a900473ffffffffffffffffffffffffffffffffffffffff1673ffffffffffffffffffffffffffffffffffffffff16146103b057600080fd5b33600283601081106103be57fe5b0160006101000a81548173ffffffffffffffffffffffffffffffffffffffff021916908373ffffffffffffffffffffffffffffffffffffffff1602179055507fc534967df5db3b9746ff2ee5700c41223ab9ef61714b7c1377c52c6ff351574b826040518082815260200191505060405180910390a1819050919050565b60015481565b6000600154905090565b60405180610200016040528060109060208202803883398082019150509050509056fea265627a7a7231582041680fe6081a1143a3446136b03b252aed4b2f62fc1b38190d5de7e95d7fc6f864736f6c634300050c0032",
  "source": "pragma solidity ^0.5.0;\n\ncontract Borrow {\n    bool private emergency = false;\n    address private admin;\n\n    uint public bookCount;\n    address[16] public borrowers;\n    //mapping (uint => address) public borrowers;\n\n    event LogBorrowed(uint bookId);\n\n    modifier onlyAdmin {\n        require(msg.sender == admin);\n        _;\n    }\n\n    modifier stopInEmergency {\n        require(!emergency);\n        _;\n    }\n\n    modifier onlyInEmergency {\n        require(emergency);\n        _;\n    }\n\n    constructor() public {\n        //initialize bookCount as 15 (0th index)\n        bookCount = 16;\n    }\n\n\n    function toggleEmergency() public onlyAdmin returns (bool) {\n        emergency = !emergency;\n        return true;\n    }\n\n    function borrowBook(uint bookId) public stopInEmergency returns (uint) {\n        require(bookId >= 0 && bookId <= bookCount);\n        require(borrowers[bookId] == 0x0000000000000000000000000000000000000000);\n        borrowers[bookId] = msg.sender;\n        emit LogBorrowed(bookId);\n        return bookId;\n    }\n\n    function getNumBooks() public view returns(uint) {\n        return bookCount;\n    }\n\n    function getBorrowers() public view stopInEmergency returns (address[16] memory) {\n        // address[] memory ret = new address[](bookCount);\n        // for (uint i = 0; i < bookCount; i++) {\n        //     ret[i] = borrowers[i];\n        // }\n        // return ret;\n        return borrowers;\n    }\n}",
  "sourcePath": "/Users/Jireh/TruffleProjects/library/contracts/Borrow.sol",
  "compiler": {
    "name": "solc",
    "version": "0.5.12+commit.7709ece9.Emscripten.clang"
  },
  "schemaVersion": "3.0.20",
  "updatedAt": "2020-01-31T04:33:51.822Z",
  "networkType": "ethereum",
  "devdoc": {
    "methods": {}
  },
  "userdoc": {
    "methods": {}
  }
}