{
  "contractName": "Borrow",
  "abi": [
    {
      "anonymous": false,
      "inputs": [
        {
          "indexed": false,
          "internalType": "uint256",
          "name": "bookId",
          "type": "uint256"
        }
      ],
      "name": "LogBorrowed",
      "type": "event"
    },
    {
      "constant": true,
      "inputs": [
        {
          "internalType": "uint256",
          "name": "",
          "type": "uint256"
        }
      ],
      "name": "borrowers",
      "outputs": [
        {
          "internalType": "address",
          "name": "",
          "type": "address"
        }
      ],
      "payable": false,
      "stateMutability": "view",
      "type": "function"
    },
    {
      "constant": false,
      "inputs": [
        {
          "internalType": "uint256",
          "name": "bookId",
          "type": "uint256"
        }
      ],
      "name": "borrowBook",
      "outputs": [
        {
          "internalType": "uint256",
          "name": "",
          "type": "uint256"
        }
      ],
      "payable": false,
      "stateMutability": "nonpayable",
      "type": "function"
    },
    {
      "constant": true,
      "inputs": [],
      "name": "getBorrowers",
      "outputs": [
        {
          "internalType": "address[16]",
          "name": "",
          "type": "address[16]"
        }
      ],
      "payable": false,
      "stateMutability": "view",
      "type": "function"
    }
  ],
  "bytecode": "0x608060405234801561001057600080fd5b50610357806100206000396000f3fe608060405234801561001057600080fd5b50600436106100415760003560e01c80636854786a146100465780637924d93f1461008c5780637e490a9e146100fa575b600080fd5b61004e61013c565b6040518082601060200280838360005b8381101561007957808201518184015260208101905061005e565b5050505090500191505060405180910390f35b6100b8600480360360208110156100a257600080fd5b81019080803590602001909291905050506101bd565b604051808273ffffffffffffffffffffffffffffffffffffffff1673ffffffffffffffffffffffffffffffffffffffff16815260200191505060405180910390f35b6101266004803603602081101561011057600080fd5b81019080803590602001909291905050506101f0565b6040518082815260200191505060405180910390f35b6101446102ff565b60006010806020026040519081016040528092919082601080156101b3576020028201915b8160009054906101000a900473ffffffffffffffffffffffffffffffffffffffff1673ffffffffffffffffffffffffffffffffffffffff1681526020019060010190808311610169575b5050505050905090565b600081601081106101ca57fe5b016000915054906101000a900473ffffffffffffffffffffffffffffffffffffffff1681565b60008082101580156102035750600f8211155b61020c57600080fd5b600073ffffffffffffffffffffffffffffffffffffffff166000836010811061023157fe5b0160009054906101000a900473ffffffffffffffffffffffffffffffffffffffff1673ffffffffffffffffffffffffffffffffffffffff161461027357600080fd5b336000836010811061028157fe5b0160006101000a81548173ffffffffffffffffffffffffffffffffffffffff021916908373ffffffffffffffffffffffffffffffffffffffff1602179055507fc534967df5db3b9746ff2ee5700c41223ab9ef61714b7c1377c52c6ff351574b826040518082815260200191505060405180910390a1819050919050565b60405180610200016040528060109060208202803883398082019150509050509056fea265627a7a7231582060f3afa320811a66009630c2b78cbd225cfeb053e7fb23ffebba6a6e3507189664736f6c634300050c0032",
  "source": "pragma solidity ^0.5.0;\n\ncontract Borrow {\n    address[16] public borrowers;\n\n    event LogBorrowed(uint bookId);\n\n    function borrowBook(uint bookId) public returns (uint) {\n        require(bookId >= 0 && bookId <= 15);\n        require(borrowers[bookId] == 0x0000000000000000000000000000000000000000);\n        borrowers[bookId] = msg.sender;\n        emit LogBorrowed(bookId);\n        return bookId;\n    }\n\n    function getBorrowers() public view returns (address[16] memory) {\n        return borrowers;\n    }\n}",
  "sourcePath": "/Users/Jireh/TruffleProjects/library/contracts/Borrow.sol",
  "compiler": {
    "name": "solc",
    "version": "0.5.12+commit.7709ece9.Emscripten.clang"
  },
  "schemaVersion": "3.0.20",
  "updatedAt": "2020-01-30T07:05:36.511Z",
  "devdoc": {
    "methods": {}
  },
  "userdoc": {
    "methods": {}
  }
}