{
  "contractName": "Borrow",
  "abi": [
    {
      "inputs": [],
      "payable": false,
      "stateMutability": "nonpayable",
      "type": "constructor"
    },
    {
      "anonymous": false,
      "inputs": [
        {
          "indexed": false,
          "internalType": "uint256",
          "name": "bookId",
          "type": "uint256"
        }
      ],
      "name": "LogBorrowed",
      "type": "event"
    },
    {
      "anonymous": false,
      "inputs": [
        {
          "indexed": false,
          "internalType": "uint256",
          "name": "bookId",
          "type": "uint256"
        }
      ],
      "name": "LogReturned",
      "type": "event"
    },
    {
      "constant": true,
      "inputs": [],
      "name": "bookCount",
      "outputs": [
        {
          "internalType": "uint256",
          "name": "",
          "type": "uint256"
        }
      ],
      "payable": false,
      "stateMutability": "view",
      "type": "function"
    },
    {
      "constant": true,
      "inputs": [
        {
          "internalType": "uint256",
          "name": "",
          "type": "uint256"
        }
      ],
      "name": "bookStatus",
      "outputs": [
        {
          "internalType": "bool",
          "name": "",
          "type": "bool"
        }
      ],
      "payable": false,
      "stateMutability": "view",
      "type": "function"
    },
    {
      "constant": true,
      "inputs": [
        {
          "internalType": "uint256",
          "name": "",
          "type": "uint256"
        }
      ],
      "name": "borrowers",
      "outputs": [
        {
          "internalType": "address",
          "name": "",
          "type": "address"
        }
      ],
      "payable": false,
      "stateMutability": "view",
      "type": "function"
    },
    {
      "constant": false,
      "inputs": [],
      "name": "toggleEmergency",
      "outputs": [
        {
          "internalType": "bool",
          "name": "",
          "type": "bool"
        }
      ],
      "payable": false,
      "stateMutability": "nonpayable",
      "type": "function"
    },
    {
      "constant": false,
      "inputs": [
        {
          "internalType": "uint256",
          "name": "bookId",
          "type": "uint256"
        }
      ],
      "name": "borrowBook",
      "outputs": [
        {
          "internalType": "uint256",
          "name": "",
          "type": "uint256"
        }
      ],
      "payable": false,
      "stateMutability": "nonpayable",
      "type": "function"
    },
    {
      "constant": false,
      "inputs": [
        {
          "internalType": "uint256",
          "name": "bookId",
          "type": "uint256"
        }
      ],
      "name": "returnBook",
      "outputs": [
        {
          "internalType": "uint256",
          "name": "",
          "type": "uint256"
        }
      ],
      "payable": false,
      "stateMutability": "nonpayable",
      "type": "function"
    },
    {
      "constant": true,
      "inputs": [],
      "name": "getNumBooks",
      "outputs": [
        {
          "internalType": "uint256",
          "name": "",
          "type": "uint256"
        }
      ],
      "payable": false,
      "stateMutability": "view",
      "type": "function"
    },
    {
      "constant": true,
      "inputs": [],
      "name": "getBorrowers",
      "outputs": [
        {
          "internalType": "address[16]",
          "name": "",
          "type": "address[16]"
        }
      ],
      "payable": false,
      "stateMutability": "view",
      "type": "function"
    },
    {
      "constant": true,
      "inputs": [],
      "name": "getBookStatus",
      "outputs": [
        {
          "internalType": "bool[16]",
          "name": "",
          "type": "bool[16]"
        }
      ],
      "payable": false,
      "stateMutability": "view",
      "type": "function"
    },
    {
      "constant": true,
      "inputs": [
        {
          "internalType": "uint256",
          "name": "bookId",
          "type": "uint256"
        }
      ],
      "name": "getSingleBookStatus",
      "outputs": [
        {
          "internalType": "bool",
          "name": "",
          "type": "bool"
        }
      ],
      "payable": false,
      "stateMutability": "view",
      "type": "function"
    }
  ],
  "bytecode": "0x608060405260008060006101000a81548160ff02191690831515021790555034801561002a57600080fd5b5060106001819055506108ac806100426000396000f3fe608060405234801561001057600080fd5b506004361061009e5760003560e01c80637924d93f116100665780637924d93f146101dd5780637e490a9e1461024b578063b905ad781461028d578063ca5140c9146102ab578063e002ece4146102ed5761009e565b806308089629146100a357806316d9769f146100e9578063214451b31461012f5780632d1d2744146101755780636854786a14610197575b600080fd5b6100cf600480360360208110156100b957600080fd5b810190808035906020019092919050505061030b565b604051808215151515815260200191505060405180910390f35b610115600480360360208110156100ff57600080fd5b8101908080359060200190929190505050610350565b604051808215151515815260200191505060405180910390f35b610137610377565b6040518082601060200280838360005b83811015610162578082015181840152602081019050610147565b5050505090500191505060405180910390f35b61017d610400565b604051808215151515815260200191505060405180910390f35b61019f61048a565b6040518082601060200280838360005b838110156101ca5780820151818401526020810190506101af565b5050505090500191505060405180910390f35b610209600480360360208110156101f357600080fd5b8101908080359060200190929190505050610524565b604051808273ffffffffffffffffffffffffffffffffffffffff1673ffffffffffffffffffffffffffffffffffffffff16815260200191505060405180910390f35b6102776004803603602081101561026157600080fd5b8101908080359060200190929190505050610557565b6040518082815260200191505060405180910390f35b6102956106af565b6040518082815260200191505060405180910390f35b6102d7600480360360208110156102c157600080fd5b81019080803590602001909291905050506106b5565b6040518082815260200191505060405180910390f35b6102f561080e565b6040518082815260200191505060405180910390f35b60008060009054906101000a900460ff161561032657600080fd5b6012826010811061033357fe5b602091828204019190069054906101000a900460ff169050919050565b6012816010811061035d57fe5b60209182820401919006915054906101000a900460ff1681565b61037f610831565b6000809054906101000a900460ff161561039857600080fd5b60126010806020026040519081016040528092919082601080156103f6576020028201916000905b82829054906101000a900460ff161515815260200190600101906020826000010492830192600103820291508084116103c05790505b5050505050905090565b60008060019054906101000a900473ffffffffffffffffffffffffffffffffffffffff1673ffffffffffffffffffffffffffffffffffffffff163373ffffffffffffffffffffffffffffffffffffffff161461045b57600080fd5b6000809054906101000a900460ff16156000806101000a81548160ff0219169083151502179055506001905090565b610492610854565b6000809054906101000a900460ff16156104ab57600080fd5b600260108060200260405190810160405280929190826010801561051a576020028201915b8160009054906101000a900473ffffffffffffffffffffffffffffffffffffffff1673ffffffffffffffffffffffffffffffffffffffff16815260200190600101908083116104d0575b5050505050905090565b6002816010811061053157fe5b016000915054906101000a900473ffffffffffffffffffffffffffffffffffffffff1681565b60008060009054906101000a900460ff161561057257600080fd5b6000821015801561058557506001548211155b61058e57600080fd5b600073ffffffffffffffffffffffffffffffffffffffff16600283601081106105b357fe5b0160009054906101000a900473ffffffffffffffffffffffffffffffffffffffff1673ffffffffffffffffffffffffffffffffffffffff16146105f557600080fd5b336002836010811061060357fe5b0160006101000a81548173ffffffffffffffffffffffffffffffffffffffff021916908373ffffffffffffffffffffffffffffffffffffffff16021790555060016012836010811061065157fe5b602091828204019190066101000a81548160ff0219169083151502179055507fc534967df5db3b9746ff2ee5700c41223ab9ef61714b7c1377c52c6ff351574b826040518082815260200191505060405180910390a1819050919050565b60015481565b60008060009054906101000a900460ff16156106d057600080fd5b600082101580156106e357506001548211155b6106ec57600080fd5b600073ffffffffffffffffffffffffffffffffffffffff166002836010811061071157fe5b0160009054906101000a900473ffffffffffffffffffffffffffffffffffffffff1673ffffffffffffffffffffffffffffffffffffffff16141561075457600080fd5b336002836010811061076257fe5b0160006101000a81548173ffffffffffffffffffffffffffffffffffffffff021916908373ffffffffffffffffffffffffffffffffffffffff1602179055506000601283601081106107b057fe5b602091828204019190066101000a81548160ff0219169083151502179055507fcd7e69458cd11cee986efa0b0905672385846cb05504351aa58cfc265f6266a5826040518082815260200191505060405180910390a1819050919050565b60008060009054906101000a900460ff161561082957600080fd5b600154905090565b604051806102000160405280601090602082028038833980820191505090505090565b60405180610200016040528060109060208202803883398082019150509050509056fea265627a7a723158201dc88ed6e9bbfae537d3f8bafa742b6531a809f07ea24dac39ba98ebcdb0711f64736f6c634300050c0032",
  "source": "pragma solidity ^0.5.0;\n\n/// @title A smart contract to simulate borrowing books from the library.\n/// @author Jireh (based Pet Shop Tutorial)\n\ncontract Borrow {\n    bool private emergency = false;\n    address private admin;\n\n    uint public bookCount;\n    address[16] public borrowers;\n    bool[16] public bookStatus;\n    //mapping (uint => address) public borrowers;\n\n    event LogBorrowed(uint bookId);\n    event LogReturned(uint bookId);\n\n    modifier onlyAdmin {\n        require(msg.sender == admin);\n        _;\n    }\n\n    modifier stopInEmergency {\n        require(!emergency);\n        _;\n    }\n\n    modifier onlyInEmergency {\n        require(emergency);\n        _;\n    }\n\n    constructor() public {\n        //initialize bookCount as 15 (0th index)\n        bookCount = 16;\n    }\n\n    /// @return circuit breaker design pattern, disables other functions\n    function toggleEmergency() public onlyAdmin returns (bool) {\n        emergency = !emergency;\n        return true;\n    }\n\n    /// @return return ID of book that has been borrowed\n    function borrowBook(uint bookId) public stopInEmergency returns (uint) {\n        require(bookId >= 0 && bookId <= bookCount);\n        require(borrowers[bookId] == 0x0000000000000000000000000000000000000000);\n        borrowers[bookId] = msg.sender;\n        bookStatus[bookId] = true;\n        emit LogBorrowed(bookId);\n        return bookId;\n    }\n\n    /// @return return ID of book that has been returned\n    function returnBook(uint bookId) public stopInEmergency returns (uint) {\n        require(bookId >= 0 && bookId <= bookCount);\n        require(borrowers[bookId] != 0x0000000000000000000000000000000000000000);\n        borrowers[bookId] = msg.sender;\n        bookStatus[bookId] = false;\n        emit LogReturned(bookId);\n        return bookId;\n    }\n\n    /// @return total number of books\n    function getNumBooks() public view stopInEmergency returns(uint) {\n        return bookCount;\n    }\n\n    /// @return get address array of all borrowers\n    function getBorrowers() public view stopInEmergency returns (address[16] memory) {\n        // address[] memory ret = new address[](bookCount);\n        // for (uint i = 0; i < bookCount; i++) {\n        //     ret[i] = borrowers[i];\n        // }\n        // return ret;\n        return borrowers;\n    }\n\n    /// @return get bool array of books' borrow status\n    function getBookStatus() public view stopInEmergency returns (bool[16] memory) {\n        return bookStatus;\n    }\n\n    /// @return get borrow status of book in book array\n    function getSingleBookStatus(uint bookId) public view stopInEmergency returns (bool) {\n        return bookStatus[bookId];\n    }\n}",
  "sourcePath": "/Users/Jireh/TruffleProjects/library/contracts/Borrow.sol",
  "compiler": {
    "name": "solc",
    "version": "0.5.12+commit.7709ece9.Emscripten.clang"
  },
  "schemaVersion": "3.0.20",
  "updatedAt": "2020-01-31T17:14:59.536Z",
  "devdoc": {
    "author": "Jireh (based Pet Shop Tutorial)",
    "methods": {
      "borrowBook(uint256)": {
        "return": "return ID of book that has been borrowed"
      },
      "getBookStatus()": {
        "return": "get bool array of books' borrow status"
      },
      "getBorrowers()": {
        "return": "get address array of all borrowers"
      },
      "getNumBooks()": {
        "return": "total number of books"
      },
      "getSingleBookStatus(uint256)": {
        "return": "get borrow status of book in book array"
      },
      "returnBook(uint256)": {
        "return": "return ID of book that has been returned"
      },
      "toggleEmergency()": {
        "return": "circuit breaker design pattern, disables other functions"
      }
    },
    "title": "A smart contract to simulate borrowing books from the library."
  },
  "userdoc": {
    "methods": {}
  }
}