{
  "contractName": "LibraryDemo",
  "abi": [
    {
      "constant": true,
      "inputs": [],
      "name": "safeAddition",
      "outputs": [
        {
          "internalType": "uint256",
          "name": "",
          "type": "uint256"
        }
      ],
      "payable": false,
      "stateMutability": "pure",
      "type": "function"
    },
    {
      "constant": true,
      "inputs": [],
      "name": "safeSubtract",
      "outputs": [
        {
          "internalType": "uint256",
          "name": "",
          "type": "uint256"
        }
      ],
      "payable": false,
      "stateMutability": "pure",
      "type": "function"
    },
    {
      "constant": true,
      "inputs": [],
      "name": "safeMultiplication",
      "outputs": [
        {
          "internalType": "uint256",
          "name": "",
          "type": "uint256"
        }
      ],
      "payable": false,
      "stateMutability": "pure",
      "type": "function"
    },
    {
      "constant": true,
      "inputs": [],
      "name": "safeDivision",
      "outputs": [
        {
          "internalType": "uint256",
          "name": "",
          "type": "uint256"
        }
      ],
      "payable": false,
      "stateMutability": "pure",
      "type": "function"
    }
  ],
  "bytecode": "0x608060405234801561001057600080fd5b50610508806100206000396000f3fe608060405234801561001057600080fd5b506004361061004c5760003560e01c80634b10b5bb146100515780635add106e1461006f578063c23a96941461008d578063d8d234d2146100ab575b600080fd5b6100596100c9565b6040518082815260200191505060405180910390f35b6100776100ea565b6040518082815260200191505060405180910390f35b61009561010b565b6040518082815260200191505060405180910390f35b6100b361014b565b6040518082815260200191505060405180910390f35b600080600190506100e460008261018a90919063ffffffff16565b91505090565b600080600090506101056001826101d490919063ffffffff16565b91505090565b6000807fffffffffffffffffffffffffffffffffffffffffffffffffffffffffffffffff905061014560018261021e90919063ffffffff16565b91505090565b6000807fffffffffffffffffffffffffffffffffffffffffffffffffffffffffffffffff905061018481826102a690919063ffffffff16565b91505090565b60006101cc83836040518060400160405280601a81526020017f536166654d6174683a206469766973696f6e206279207a65726f00000000000081525061032c565b905092915050565b600061021683836040518060400160405280601e81526020017f536166654d6174683a207375627472616374696f6e206f766572666c6f7700008152506103f2565b905092915050565b60008082840190508381101561029c576040517f08c379a000000000000000000000000000000000000000000000000000000000815260040180806020018281038252601b8152602001807f536166654d6174683a206164646974696f6e206f766572666c6f77000000000081525060200191505060405180910390fd5b8091505092915050565b6000808314156102b95760009050610326565b60008284029050828482816102ca57fe5b0414610321576040517f08c379a00000000000000000000000000000000000000000000000000000000081526004018080602001828103825260218152602001806104b36021913960400191505060405180910390fd5b809150505b92915050565b600080831182906103d8576040517f08c379a00000000000000000000000000000000000000000000000000000000081526004018080602001828103825283818151815260200191508051906020019080838360005b8381101561039d578082015181840152602081019050610382565b50505050905090810190601f1680156103ca5780820380516001836020036101000a031916815260200191505b509250505060405180910390fd5b5060008385816103e457fe5b049050809150509392505050565b600083831115829061049f576040517f08c379a00000000000000000000000000000000000000000000000000000000081526004018080602001828103825283818151815260200191508051906020019080838360005b83811015610464578082015181840152602081019050610449565b50505050905090810190601f1680156104915780820380516001836020036101000a031916815260200191505b509250505060405180910390fd5b506000838503905080915050939250505056fe536166654d6174683a206d756c7469706c69636174696f6e206f766572666c6f77a265627a7a723158209f5404604fdb194bddbee5e8a6e93f44bdc7c9b415f1ca9607668acbd6886f5264736f6c634300050c0032",
  "source": "pragma solidity ^0.5.0;\n\nimport '@openzeppelin/contracts/math/SafeMath.sol';\n\ncontract LibraryDemo {\n    using SafeMath for uint256;\n\n    //exception when overflow\n    function safeAddition() public pure returns (uint256) {\n        uint256 a = 2**256 - 1;\n        return a.add(1);\n    }\n\n    //exception when underflow\n    function safeSubtract() public pure returns (uint256) {\n        uint256 a = 0;\n        return a.sub(1);\n    }\n\n    function safeMultiplication() public pure returns (uint256) {\n        uint256 a = 2**256 - 1;\n        return a.mul(a);\n    }\n\n    function safeDivision() public pure returns (uint256) {\n        uint256 a = 1;\n        return a.div(0);\n    }\n}",
  "sourcePath": "/Users/Jireh/TruffleProjects/library/contracts/LibraryDemo.sol",
  "compiler": {
    "name": "solc",
    "version": "0.5.12+commit.7709ece9.Emscripten.clang"
  },
  "schemaVersion": "3.0.20",
  "updatedAt": "2020-01-30T23:49:12.517Z",
  "devdoc": {
    "methods": {}
  },
  "userdoc": {
    "methods": {}
  }
}